:020000040800F2
:100000005007002065030008912100089D2000088A
:100010008D2100086D0400084D2900080000000033
:10002000000000000000000000000000732700082E
:100030006F040008000000009321000875270008E5
:100040007F0300087F0300087F0300087F03000888
:100050007F0300087F0300087F0300087F03000878
:100060007F0300087F0300087F0300087F03000868
:100070007F0300087F0300087F0300087F03000858
:100080007F0300087F0300087F0300087F03000848
:100090007F0300087F0300087F0300087F03000838
:1000A0007F0300087F0300087F0300087F03000828
:1000B0007F0300087F0300087F0300087F03000818
:1000C0007F0300087F0300087F0300087F03000808
:1000D0007F0300087F0300087F0300087F030008F8
:1000E0007F0300087F030008000000007F03000872
:1000F0007F0300087F0300087F0300087F030008D8
:100100007F0300087F0300087F0300087F030008C7
:100110007F0300087F0300087F0300087F030008B7
:100120007F0300087F0300087F0300087F030008A7
:100130007F0300087F0300087F0300087F03000897
:1001400000000000000000000000000000000000AF
:100150007F0300087F0300087F0300087F03000877
:100160007F0300087F0300087F0300087F03000867
:100170007F0300087F0300087F0300087F03000857
:100180007F0300087F0300087F0300087F03000847
:100190007F0300087F0300087F0300087F03000837
:1001A0007F0300087F0300087F0300087F03000827
:1001B0007F0300087F0300087F0300087F03000817
:1001C0007F0300087F0300087F0300087F03000807
:1001D0007F0300087F0300087F0300087F030008F7
:1001E0007F0300087F0300087F0300087F030008E7
:1001F0007F0300087F0300087F0300087F030008D7
:100200007F0300087F0300087F0300087F030008C6
:100210007F0300087F0300087F0300087F030008B6
:100220007F0300087F0300087F0300080000000030
:100230007F0300087F030008000000007F03000820
:100240007F0300087F0300087F0300087F03000886
:100250007F0300087F0300087F0300087F03000876
:100260007F0300087F0300087F0300087F03000866
:100270007F0300087F0300087F03000800000000E0
:100280007F0300087F0300087F03000800000000D0
:10029000000000007F03000800F002F800F052F8B0
:1002A00014A696E8000CB244B344DA4501D100F03C
:1002B00049F8BAE80F000FA696E83000A5EB040550
:1002C00004EB0607AAEB0704A7F101074FEA15158F
:1002D0004FEA3414A4F10104AC4201D300F032F827
:1002E00013F0010F18BFFB1A43F0010300F001F8EF
:1002F000DBE71847D4260000F4260000103A24BF9C
:1003000078C878C1FAD8520724BF30C830C144BF7A
:1003100004680C6070470000704700000023002450
:1003200000250026103A28BF78C1FBD8520728BF05
:1003300030C148BF0B6070471FB502F030FB1FBDD6
:1003400010B510BD00F058F81146FFF7F5FF02F0A8
:10035000FFFA00F076F803B4FFF7F2FF03BC00F0F9
:100360007DF800000948804709480047FEE7FEE79E
:10037000FEE7FEE7FEE7FEE7FEE7FEE7FEE7FEE755
:1003800004480549054A064B704700007F280008CD
:10039000990200085001002050070020500300205F
:1003A000500300204FF0000200B5134694469646D5
:1003B000203922BFA0E80C50A0E80C50B1F1200178
:1003C000BFF4F7AF090728BFA0E80C5048BF0CC026
:1003D0005DF804EB890028BF40F8042B08BF704784
:1003E00048BF20F8022B11F0804F18BF00F8012BF6
:1003F0007047704770477047754600F02BF8AE465F
:1004000005006946534620F00700854618B020B520
:10041000FFF7B6FFBDE820404FF000064FF00007A1
:100420004FF000084FF0000BAC46ACE8C009ACE858
:10043000C009ACE8C009ACE8C00921F007018D464D
:10044000704710B50446AFF300802046BDE8104069
:10045000FFF781BF004870471000002001491820B5
:10046000ABBEFEE72600020070470000FEE77047C3
:10047000EFF3108072B600BFFEE700002DE9F04FE9
:1004800083B00F68002F00F0C88000F1264642F2CA
:10049000004506F1FF76C5F602050A22A8424FEA9A
:1004A000B62540F2040C08BF092200F12003009396
:1004B000092DC5F6000C38BF4FEAB62200240026ED
:1004C0004FF00008019200BF012202FA08FE17EA6D
:1004D0000E0900F09780D1F804B003220BF0030757
:1004E000B2407D1E6FEA020A012D11D88268CD68E4
:1004F00002EA0A02B5402A438260CBF30015426843
:1005000022EA0E0205FA08F52A43426004E000BF21
:10051000032F01D103271FE0C2688D6802EA0A0297
:10052000B540022F42EA0502C26015D16FF0030206
:1005300004F01C0502EA580B009A0F2352F80BE056
:10054000AB400F692EEA0303AF403B4342F80B3048
:10055000D1F804B00BF00307026807FA06F302EAC9
:100560000A021BF4403F42EA030202604AD044F20E
:10057000F44340F2084EC5F60203C5F6000E0F25FF
:100580001A6842F002021A601A6802F0020202922D
:1005900028F00302029B04F00C0352F80E709D40F9
:1005A000AF43019D05FA03F33B4342F80E304FF091
:1005B000B04EDEF800204B6842EA0907DD0258BF62
:1005C00022EA09079D02CEF80070DCF8002042EA1A
:1005D000090758BF22EA09079D03CCF80070DCF830
:1005E000802042EA090758BF22EA0907DB03CCF85A
:1005F0008070DCF87C2042EA090758BF22EA09072C
:10060000CCF87C7008F101080F6837FA08F206F19F
:10061000020604F104047FF457AF03B0BDE8F08F85
:1006200041F20000C5F600400068000C704740F23F
:100630004810C2F200000068704740F2080040F223
:100640004811C2F20000C2F2000100780A681044AA
:100650000860704780B5032000F094F801F0B4F80A
:1006600044F2184142F6B813C5F60201C0F6000381
:100670000A68C2F303229A5C096801F00F0102F0D4
:100680001F02595CD04040F20402C2F2000201F0A5
:100690001F0120FA01F1116040F20001C2F20001D5
:1006A00008600F2000F007F808B1012080BD00F0BD
:1006B0002CF8002080BDB0B540F20801C2F2000164
:1006C0000978F9B1044640F20000C2F200004FF48C
:1006D0007A72B2FBF1F10068B0FBF1F001F0C8FCF6
:1006E0000F2C4FF001050ED868B94FF0FF300022F3
:1006F0002146002500F019F840F20C00C2F200007B
:10070000046000E001252846B0BD81B044F2F44009
:10071000C5F60200016841F002010160006800F0C6
:1007200002000090009801B0704770B54EF60C5C66
:100730004FF0FF36CEF2000C00F1604505F5644540
:10074000DCF80030C3F3022E8EF00703042B28BF21
:100750000423BEF1030406FA03F321EA030100F0C7
:100760000F0338BF0024043B0028634406FA04F05A
:1007700048BF03F10C05A14022EA00000843000134
:10078000287070BD4EF60C514FF6FF03CEF20001FB
:100790000A681A4060F30A2242F0806040F0FD705F
:1007A00008607047B0B544F60C05C5F60205296827
:1007B0004907296805D401F00701081A18BF01206C
:1007C000B0BD21F0070108432860FFF730FF044661
:1007D00055F8080C800407D4FFF729FF001BB0F57B
:1007E0007A7FF5D90120B0BD0020B0BD2DE9F041E0
:1007F00082B01D46174688460446FFF718FF94F856
:100800004010012901D102251AE00646012084F892
:10081000400094F8410001280ED10020606442207D
:1008200084F841002021002220463346009501F043
:1008300067FE48B1012500E00225002084F8400051
:10084000284602B0BDE8F081206897E80E1081626A
:100850004262C36201683A6921F4400111434FF0DA
:10086000006241F48001016020464146C8F828C07A
:1008700001F090FC0821012220463346009508270C
:10088000012501F03DFE0028D7D12068C76084F81B
:1008900041500025D1E72DE9F04182B016460F46C0
:1008A0000446FFF7C4FE94F84010012901D1022547
:1008B0002FE08046012084F84000022594F8410092
:1008C000012823D1002060642021002220464346D5
:1008D00084F84150009601F013FE08B1012515E09F
:1008E00000222046394601F055FC786A20B10025E7
:1008F000012084F8410009E00221012220464346FC
:1009000000960226012501F0FBFD30B1002084F89D
:100910004000284602B0BDE8F0812068C660E6E7E6
:100920002DE9F04182B00446FFF781FE002C4BD048
:10093000054694F8410028B9204600F08DF841F2B0
:100940008830A06420686FF0FF06A1684FF00008AF
:10095000A36C026822F4F85206EB012111430160F6
:1009600020210022009320462B4601F0C9FD0028DB
:100970004FF0010029D1D4E900124FF62F77D4E9C6
:1009800003350E68C0F2FF0737403B43E76943EA8F
:100990000262236A3A431A430A604FF6FE034A682A
:1009A000CFF6E0731A4063691A43A36942EA05422D
:1009B0001A434A600A6842F001020A60C4F844809F
:1009C00084F84100002000E0012002B0BDE8F08181
:1009D00070B582B016460D460446FFF728FE94F81F
:1009E0004010012901D1022034E00346012084F89F
:1009F000400094F8410001280ED10020606482205C
:100A000084F84100A06C202100220090204601F0D3
:100A100077FD18B101201AE0022018E02068016873
:100A2000726821F00801082A41EA0201016007D139
:100A3000316801631021C160016841F480110160D7
:100A40004FF040622046294601F0A4FB002000211F
:100A500084F8401002B070BD2DE9F043B7B00446F1
:100A600032A81421FFF79EFC02A8B8210830FFF736
:100A700099FC45F200012068C5F20021884257D157
:100A80004FF00070029002A84FF00008CDF80C80E3
:100A900000F0B8F808B1FFF7EBFC44F2D44041F2A3
:100AA0000044C5F60200C5F6020432AD0227016813
:100AB000032641F48041016001684FF00A0901F406
:100AC000804101910199C16841F04001C160C16854
:100AD00001F0400101910199C16841F02001C1601C
:100AE000C068294600F02000019001984020329013
:100AF00004F58060CDE933783596CDF8D890FFF7CE
:100B0000BDFC32A94FF49860359681E88101092037
:100B1000369020462946FFF7B1FC32A94FF44070C9
:100B2000CDE9356981E8810120462946FFF7A6FC19
:100B300037B0BDE8F08300002DE9F04182B0904667
:100B40000F460446FFF773FD2568A96994F8402015
:100B5000012A01D1022751E00646012084F8400015
:100B600094F8410001283FD14FF000006064EFB3DA
:100B7000222084F84100286901220130A0632869FD
:100B8000013060632763686962F39B606861A961F3
:100B9000A06BB8B1012700BF0621012220463346D1
:100BA000CDF8008001F0ACFCD0B995F82000216BA5
:100BB0000870206BA16B01302063481EA063A06BFE
:100BC0000028E9D10221012220463346CDF80080D9
:100BD0000225012701F094FC10B920680027C560A8
:100BE000012084F8410006E0022704E0606C012740
:100BF00040F008006064002084F84000384602B0ED
:100C0000BDE8F0812DE9F0470446C07844F2104871
:100C10000007C5F6020824D5A06E4FEA305103291B
:100C200037D8DFE801F002090F17D8F81C1041F49B
:100C30000031C8F81C100DE004F10800022101F099
:100C400091FC04E004F12800022101F00FFD0646AA
:100C500040B9A06ED8F8401021F440110843C8F8FC
:100C6000400000266078C00701D135462AE0A06D1B
:100C7000042800F21B813546DFE800F003130D194C
:100C80001900D8F81C00354640F40030C8F81C00A4
:100C90000DE00126E6E704F12800002101F0E6FC62
:100CA00004E004F10800002101F05CFC05462F4639
:100CB0004DB9D8F84000A16D20F007000025084389
:100CC000C8F8400037466078800728D5E06D4FEAC5
:100CD000B010042800F2ED80DFE800F003100A16DF
:100CE0001600D8F81C0040F40030C8F81C000BE0D7
:100CF00004F12800002101F0B9FC04E004F108002F
:100D0000002101F02FFC05462E464DB9D8F84000D1
:100D1000E16D20F4E07000250843C8F840003E462D
:100D2000607840072AD5D4F8A8004FEA705004280C
:100D300000F2C280DFE800F003100A161600D8F8AF
:100D40001C0040F40030C8F81C000BE004F128003F
:100D5000002101F08BFC04E004F10800002101F007
:100D600001FC0546A94655B9D8F84800D4F8A810A2
:100D700020F4600000250843C8F84800B1466078B8
:100D800000072AD5D4F8AC004FEA3060042800F2FE
:100D90009780DFE800F003100A161600D8F81C0050
:100DA00040F40030C8F81C000BE004F128000021DA
:100DB00001F05CFC04E004F10800002101F0D2FB2A
:100DC00005462F4655B9D8F84800D4F8AC1020F0A5
:100DD000E06000250843C8F848004F46E0788007E7
:100DE00020D5E06C4FEA3010032830D8DFE800F05F
:100DF0000F02090FD8F81C0040F40030C8F81C009E
:100E000005E004F10800022101F0ACFB05462E4686
:100E10004DB9D8F83C00E16C20F0300000250843C3
:100E2000C8F83C003E466078C0062AD5206E4FEADE
:100E30003030042847D8DFE800F003130D191900FB
:100E4000D8F81C0040F40030C8F81C000EE0012562
:100E50000126E8E704F12800002101F007FC04E086
:100E600004F10800002101F07DFB05462F464DB935
:100E7000D8F84000216E20F4E04000250843C8F86F
:100E8000400037466078800631D5606E4FEA3040CA
:100E9000052800F23F83DFE800F01F03191F1F1F22
:100EA00004F10800012101F05DFB14E00125012798
:100EB00009E70125012633E701254FF001095EE727
:100EC000012501278AE701250127DBE704F1280036
:100ED000012101F0CBFB05462E464DB9D8F8400064
:100EE000616E20F4E02000250843C8F840003E462B
:100EF0006078400623D5D4F8B0004FEA307005285A
:100F000000F20B83DFE800F00F03090F0F0F04F16D
:100F10000800012101F026FB04E004F12800012172
:100F200001F0A4FB05462F4655B9D8F84800D4F87F
:100F3000B01020F0E04000250843C8F848003746CC
:100F4000607800061FD5206F90B1B0F1005F09D026
:100F5000B0F1805F29D1D8F81C0040F40030C8F807
:100F60001C0005E004F10800012101F0FBFA054630
:100F70002E464DB9D8F84000216F20F04050002592
:100F80000843C8F840003E46E078C00721D0A06C76
:100F900003284FD8DFE800F012020C12D8F81C002A
:100FA00040F40030C8F81C0008E001250126EBE7FA
:100FB00004F10800022101F0D5FA0546A9464DB911
:100FC000D8F83C00A16C20F0030000250843C8F8C5
:100FD0003C00B146A078400601D44F4616E0D8F850
:100FE000F00340F48070C8F8F003FFF720FB0646DA
:100FF000D8F8F003C00507D4FFF719FB801B64285D
:10100000F6D90325032701E02F46BDB12078C0079C
:1010100056D0E06F4FEAF000052800F28182DFE849
:1010200000F044033E44444404F10800012101F06F
:1010300099FA39E001254FF00109CBE7D8F86010A3
:10104000D4F8B400414011F4407F11D0D8F86010BA
:10105000D8F8602042F48032C8F86020D8F86020C8
:1010600021F4407122F48032C8F86020C8F8601082
:10107000B0F5807F40F06882FFF7D9FA064641F26A
:10108000883A0325032700BFD8F86000800700F1E5
:101090005982FFF7CCFA801B5045F5D9B6E704F129
:1010A0002800012101F0E2FA05462E464DB9D8F894
:1010B0004400E16F20F0380000250843C8F84400E0
:1010C0003E46207880071FD5A06F052800F22B82AE
:1010D000DFE800F00F03090F0F0F04F108000121F2
:1010E00001F040FA04E004F12800012101F0BEFA09
:1010F00005462F464DB9D8F84400A16F20F00700EF
:1011000000250843C8F8440037462078400721D519
:10111000D4F89400052800F20982DFE800F00F03FC
:10112000090F0F0F04F10800012101F01BFA04E080
:1011300004F12800012101F099FA05462E4655B91F
:10114000D8F84800D4F8941020F007000025084390
:10115000C8F848003E462078800623D5D4F8900091
:101160004FEA3070052800F2E481DFE800F00F0359
:10117000090F0F0F04F10800002101F0F3F904E05A
:1011800004F12800022101F071FA05462F4655B9F5
:10119000D8F84400D4F8901020F0E040002508432F
:1011A000C8F8440037462078400623D5D4F89C0080
:1011B0004FEAB020052800F2BF81DFE800F00F03FE
:1011C000090F0F0F04F10800002101F0CBF904E032
:1011D00004F12800022101F049FA05462E4655B9CE
:1011E000D8F84800D4F89C1020F4E05000250843BB
:1011F000C8F848003E462078000623D5D4F8A00061
:101200004FEA7030052800F29A81DFE800F00F0302
:10121000090F0F0F04F10800002101F0A3F904E009
:1012200004F12800022101F021FA05462F4655B9A4
:10123000D8F84800D4F8A01020F4604000250843F6
:10124000C8F8480037462068010716D5D4F884004E
:10125000B0F5805F09D104F12800022101F006FAFF
:10126000002818BF0127D4F88400D8F8441021F4CE
:1012700040510843C8F844002068C10616D5D4F888
:101280009800B0F5807F09D104F12800022101F017
:10129000EDF9002818BF0127D4F89800D8F84810B5
:1012A00021F440710843C8F848002068000322D5A3
:1012B000D4F8A400B0F5003F11D0B0F5803F08D0BD
:1012C000002840F01F8104F10800002101F04AF9D4
:1012D00004E004F12800022101F0C8F905462E4679
:1012E00055B9D8F84800D4F8A41020F440300025AF
:1012F0000843C8F848003E46A078400724D5D4F8F3
:101300008800B0F5401F13D0B0F5001F0AD0B0F52B
:10131000801F40F0FA80D8F81C0040F40030C8F874
:101320001C0005E004F12800012101F09FF90546A9
:101330002F4655B9D8F84400D4F8881020F440104E
:1013400000250843C8F844003746A078C00701D1FB
:101350003E461FE0206DB0F5803F07D0C0B9D8F8F9
:101360001C0040F40030C8F81C0005E004F108003F
:10137000022101F0F7F805462E465DB9D8F83C0089
:10138000216D20F4803000250843C8F83C00DFE7D9
:10139000012501262168880001D4606809E004F174
:1013A0002800022101F062F9002818BF0126D4E9C3
:1013B00000108A031BD5D4F880206FF0010303EBE3
:1013C0003223022B0BD34FEA322343B1012B40F0DF
:1013D0009F80D8F81C3043F40033C8F81C303DB966
:1013E000D8F8443023F440731A43C8F844203546F3
:1013F000CA0207D5D8F84020636F22F000421A4392
:10140000C8F84020CA0008D5D8F80020D4F8B83071
:1014100022F480421A43C8F800208A0207D5D8F87F
:101420004020E36E22F080721A43C8F840204A0040
:101430000CD5D8F8002022F40042C8F80020D4F8D7
:10144000BC20D8F800301A43C8F80020CA0F07D0D3
:10145000D8F83C20636D22F040521A43C8F83C2073
:10146000090208D5D8F84410D4F88C2021F44001A2
:101470001143C8F84410C10708D004F10800002146
:1014800001F070F8002818BF05466068810708D58C
:1014900004F10800012101F065F8002818BF054695
:1014A0006068410708D504F10800022101F05AF8EC
:1014B000002818BF05466068010708D504F1280018
:1014C000002101F0D3F8002818BF05466068C10666
:1014D00008D504F12800012101F0C8F8002818BF40
:1014E00005466068800607D504F12800022101F056
:1014F000BDF8002818BF0125002D18BF012528467A
:10150000BDE8F08701250126F6E6012501271CE745
:1015100001256DE701250126EAE4012501270FE5F4
:1015200001250126CDE501250127EEE5012501264E
:1015300011E60125012736E6012501265BE6012596
:10154000012780E6D4F8B4004FF6CF73D8F8002016
:10155000C0F2FF0300F4407122F47C5203EA10133E
:101560006FF31F30B1F5407F08BF1A430025C8F85C
:101570000020D8F860100843C8F860002DE500008E
:101580002DE9F04381B0002800F0198142F20008F3
:101590000446C5F200288946D8F8000000F00F0084
:1015A00088420ED2D8F8000020F00F0040EA09006F
:1015B000C8F80000D8F8000000F00F00484540F0DF
:1015C000FE80206844F210474107C5F602070AD59D
:1015D0002169BA6802F07002914204D9BA6822F017
:1015E00070021143B96001070AD56169FA6802F017
:1015F0007002914204D9FA6822F070021143F96036
:10160000C1060AD5A169FA6802F4E062914204D9E0
:10161000FA6822F4E0621143F96081060AD5E169B3
:101620003A6902F07002914204D93A6922F07002DC
:101630001143396110F002010AD0E268BB6803F07F
:101640000F039A4204D9BB6823F00F031A43BA6010
:10165000C20736D0B86820F47061D4E901021143A2
:10166000B960012857F8101C09D0032804D00228BB
:1016700008D1890309D4A2E0890106D49FE0C905F5
:1016800003D49CE0490740F19A80396821F00701B2
:1016900008433860FEF7CBFF064641F2883500BFAD
:1016A0003868616800F03800B0EBC10F06D0FEF773
:1016B000BEFF801BA842F3D9032081E0206800F020
:1016C000020151B1E168BA6802F00F02914204D2FE
:1016D000BA6822F00F021143B960D8F8001001F087
:1016E0000F0149450DD9D8F8001021F00F0141EA4A
:1016F0000901C8F80010D8F8001001F00F014945A1
:101700005DD141070AD52169BA6802F070029142A1
:1017100004D2BA6822F070021143B96001070AD5F9
:101720006169FA6802F07002914204D2FA6822F00C
:1017300070021143F960C1060AD5A169FA6802F482
:10174000E062914204D2FA6822F4E0621143F96047
:1017500080060AD5E069396901F07001884204D237
:10176000396921F070010843386100F02DF8B9683B
:1017700042F6B812C0F60002C1F30321515CBB6807
:1017800003F00F0301F01F01D25C20FA01F102F017
:101790001F0040F20402C2F2000221FA00F01060C1
:1017A00040F20C0040F20002C2F20000C2F200025D
:1017B0000068116001B0BDE8F043FEF77CBF012076
:1017C00001B0BDE8F083000044F20041C5F602011B
:1017D0000869C0F3C200032814D002280DD080BBD2
:1017E0000868800649F20000C0F2D03058BF704748
:1017F0000968C1F3C101C840704747F64000C0F214
:101800007D1070478A6A886AC0F3051CC86ABCF1FB
:10181000000F4B6B1AD000F00100404200EAD300E9
:101820006FF35F3000EE100A02F003000228B8EEFA
:10183000400A0DD078B9086880060FD49FED231AAE
:1018400019E040F60010C0F23D00704700207047DC
:101850009FED1D1A0FE09FED1B1A0CE0086849F27E
:101860000002C0F2D032C0F3C10022FA00F001EE53
:10187000100AB8EE411A086B9FED153A6FF35F201E
:1018800002EE100A086BC0F34620B8EE422A01307F
:1018900000EE032A00EE10CAB7EE003AB8EE400A96
:1018A00081EE000A32EE031A20EE010A01EE100A60
:1018B000B8EE411A80EE010ABCEEC00A10EE100A22
:1018C000704700BF0024744A20BCBE4B0024744CF7
:1018D0000000003958B3F0B581B00446007844F2F6
:1018E0000046C007C5F6020623D12078800740F1E4
:1018F000B380306910F03801B06A3ED0182908BFB3
:101900005FEA807039D0E068316800285ED021F04D
:10191000190108433060FEF78AFE0546306840072B
:1019200045D4FEF784FE401B0228F7D981E101204F
:101930007047306900F03801B06A102905D01829C5
:101940000AD100F00300022806D130688003CCD50C
:1019500060680028C9D142E16168306800295BD025
:10196000B1F5A02F43D0B1F5803F44D020F48030B2
:101970003060306820F480203FE030684007E06845
:1019800002D5002800F02B81316821F019010843AD
:101990003060FEF74CFE05463068400707D4FEF77E
:1019A00046FE401B02284FF00300F5D942E1FEF746
:1019B00037FE41F20301884244D82069716840280B
:1019C00021F47C3145D141F4003044E021F00100A4
:1019D0003060FEF72CFE0546306840073CD5FEF728
:1019E00026FE401B02284FF00300F5D922E140F407
:1019F00080203060306840F480303060FEF717FEA1
:101A0000054600BF306880033FF56FAFFEF70FFE5D
:101A1000401B6428F6D90CE120F480303060306837
:101A200020F480203060FEF702FE05463068800317
:101A30007FF55BAFFEF7FBFD401B64284FF0030012
:101A4000F4D9F7E07068216920F0FE4040EA0160B7
:101A500001E041EA003070602078C00654D530695A
:101A600000F03801B06A082905D0182919D100F012
:101A70000300012815D13068C00503D5E06980282E
:101A800040F0AD80FEF7CCFD41F2030188421ED844
:101A9000206A7168202821F0F84132D141F080405D
:101AA00031E0E0690028306819D040F080003060F3
:101AB000FEF7BDFD054600BF3068C005E2D4FEF765
:101AC000B6FD401B02284FF00300F5D9B2E0F068E4
:101AD000216A20F07C5040EA0160F06014E020F0C0
:101AE00080003060FEF7A3FD054600BF3068C005EA
:101AF0000AD5FEF79CFD401B02284FF00300F5D9E4
:101B000098E041EA806070602078000754D4207823
:101B1000800666D42078400778D4656A002D49D0C5
:101B2000306900F03800182840F0BA80012DB16A01
:101B3000306B54D001F00302A36A9A424FD1C1F333
:101B40000511E26A91424AD10146226B6FF35F218F
:101B5000013A914243D1C0F34622616B01398A4276
:101B60003DD1C0F30642A16B01398A4237D1C0F39F
:101B70000660E16B0139884231D1706BA16CC0F312
:101B8000CC00814216D0F06A20F00100F062FEF72E
:101B90004EFD0546FEF74BFDA842FBD0706B4FF69D
:101BA000F871A26C884340EAC2007063F06A40F0AA
:101BB0000100F06200203DE060690028706F3BD0BA
:101BC00040F001007067FEF732FD0546706F800738
:101BD0009DD4FEF72CFD401B0228F7D929E00120F7
:101BE00028E0A0690028306847D040F48050306079
:101BF000FEF71DFD054600BF306880043FF58AAF43
:101C0000FEF715FD401B0228F6D912E0D6F80004B5
:101C100040F48070C6F80004FEF709FD054600BFD9
:101C2000D6F80004C00519D4FEF701FD401B642856
:101C3000F6D9032001B0F0BD20F001007067FEF777
:101C4000F6FC0546706F80077FF561AFFEF7EFFC8D
:101C5000401B02284FF00300F4D9EBE7A168306F76
:101C6000002957D005293DD001293FD020F001009F
:101C70003067306F20F004003AE020F4805030608C
:101C8000FEF7D5FC054600BF306880047FF542AF03
:101C9000FEF7CDFC401B02284FF00300F4D9C9E742
:101CA000306820F080703060FEF7C1FC022D0546E0
:101CB0000CD100BF3068800144D5FEF7B8FC401B52
:101CC00002284FF00300F5D9B4E700BF3068800167
:101CD0007FF570AFFEF7ABFC401B02284FF003000E
:101CE000F4D9A7E740F004003067306F40F00100FE
:101CF0003067FEF79CFC054641F28837306F80075D
:101D00003FF50BAFFEF793FC401BB8424FF00300CA
:101D1000F4D98FE720F001003067306F20F0040025
:101D20003067FEF784FC054641F28837306F800744
:101D30007FF5F3AEFEF77BFC401BB8424FF003008B
:101D4000F4D977E704F12807B06A40F2F331884309
:101D50008ECF0843591E40EA02104FF47E426FF3C3
:101D60005F21B06202EB47204FF4FE0280B2E36BCA
:101D70000844A16B02EB01414FF0FE4201F4FE0169
:101D800002EB0362084402F0FE4108443063F06A4B
:101D90004FF6F87120F00100F062706BA26C88437E
:101DA00040EAC2007063F06A216C20F00C00084326
:101DB000F062F06A616C20F002000843F062F06AA1
:101DC00040F48030F062F06A40F40030F062F06A73
:101DD00040F48020F062F06A40F00100F062306868
:101DE00040F080703060FEF722FC044630688001CD
:101DF0003FF5E0AEFEF71BFC001B02284FF003008E
:101E0000F4D917E700284DD02DE9F04F81B043F603
:101E1000000304460068C4F2000343F2000E43F6D8
:101E2000004C9842C4F2010EC4F2000C4FF00001C5
:101E3000A16203D0604518BF704540D1E16B012518
:101E4000E268984202F1080205EB51114FEAD20212
:101E500002FB01F118BF704526D1102932D894F841
:101E6000810028B9002084F88000204600F0A1F805
:101E7000022084F88100D4E90009D4F818800368AE
:101E8000B8F1806F23F001030360836803F4F81E48
:101E900022D1B9F1000F17D0B9F5800F1CD1A36B77
:101EA00003BB15E001207047604518BF082909D819
:101EB0000CF57442904218BF6045CED0CFE7E16880
:101EC0000F29BBD9012071E0A36BB3F1805F06D16C
:101ED000036843F4805303605FEA492302D44FF060
:101EE000010C0EE0E368072B09D3056825F4807C1C
:101EF000256D45EA0C0505604FF0000C06E04FF03B
:101F0000000C036823F480730360E368E769A26A46
:101F100047EA0E07E16B3A43A7681143B9F1000F96
:101F2000D4E904BA41EA03018160616BA56B626A7E
:101F300041EA0201226A41EA050141EA0B0141EA54
:101F40000A01D4E9126341EA0201A26D41EA0301E8
:101F500041EA070141EA060141EA020141EA0801BA
:101F600041EA0901C1600DD0016DBCF1000F21F003
:101F70000101016514D1C168626D21F00041114376
:101F8000C1600DE08168012262F3CC21816081682B
:101F9000022262F34A218160016D21F00101016595
:101FA0000020C4F88400012184F8811001B0BDE84C
:101FB000F08F2DE9F041B8B0044641F2004533A856
:101FC0001421C5F60005FEF7EDF902A8B821083086
:101FD000FEF7E8F92068A84247D14FF4804002900C
:101FE00002A84FF00008CDF80C80FEF70BFE08B1F8
:101FF000FEF73EFA44F2E04033ACC5F60200022799
:102000000326416941F020014161416901F020014D
:1020100001910199016841F040010160016801F0FE
:10202000400101910199016841F0010101600068DE
:10203000214600F00100019001984FF4E0403390F8
:102040000520379005F50130CDE934783696FEF756
:1020500015FA33A91020369681E8810108203790BF
:1020600005F5F6302146FEF709FA38B0BDE8F081F3
:10207000411E0020B0EB116F01D0012070474EF2DD
:102080001002F023CEF2000251604EF62351CEF240
:1020900000010B700721906011607047FEE781B06E
:1020A00044F2E040C5F60200016841F00101016020
:1020B000016801F0010100910099016841F00401FB
:1020C0000160016801F0040100910099016841F08C
:1020D00040010160016801F0400100910099016830
:1020E00041F080010160016801F0800100910099D8
:1020F000016841F020010160006800F020000090BC
:10210000009801B0704780B540F2740045F20001BC
:10211000C2F20000C5F200212022016001214160CD
:1021200082601022C260162202610022C0E90521ED
:10213000C0E90722FEF7F4FB18B1BDE88040FEF7C6
:1021400097B980BD10B540F2C00441F20040C2F220
:102150000004C5F60000072120600020C4E901004A
:10216000C4E90310C4E90500C4E90800C4E90A0091
:1021700004F134002821FEF715F92046FFF742FE4E
:1021800018B1BDE81040FEF773B910BDFEE70000BE
:10219000FEE770472DE9F04FD1F824C0B2F1406F4F
:1021A00018BFBCF1000F03D003688F6A013F1F61A5
:1021B000D1F818E0BEF1000F0B6A34D0002B60D0CC
:1021C000D0F800908868D1E90487CC69C9F81C0070
:1021D000D1E90BB5002C486B4FEA87476AD0D1F89C
:1021E00000A0CE6846EA0A06B2F1406F45EA06054D
:1021F00045EA0B0540EA050040EA070040EA08000E
:1022000040EA020040EA0C0040EA0E0040EA030007
:1022100040EA0400C9F8140000F0A5804868C9F835
:102220001800BDE8F08F002B56D0D0F800808868E9
:10223000D1E904E4CD69C8F81C00D1E90B96002D62
:10224000486B4FEA844461D0CF68B2F1406F46EAF0
:10225000070646EA090640EA060040EA040040EAAA
:102260000E0040EA020040EA0C0040EA030040EAA7
:102270000500C8F8140076D04868C8F81800BDE812
:10228000F08F4D69CB69AD04D1E90B96002B4F6BF4
:102290004AD0D1F80080CC6844EA0804006834438E
:1022A00044EA09043C432C43144344EA0C0747EA3C
:1022B0000E0721E00968294341EA0B01084338432E
:1022C00040EA0800104340EA0C0040EA0E001843C0
:1022D000C9F81400BDE8F08FCB6993B3D1E90B6561
:1022E0004F692E434C6B00682643CD6846EA87470A
:1022F0002F43174347EA0C07B2F1406F47EA030246
:10230000426130D049688161BDE8F08F49EA060139
:102310000843204340EA0E00104340EA0C001843F3
:10232000C8F81400BDE8F08F09680068314341EA3D
:10233000090139432943114341EA0C0141EA0E01E5
:1023400010E0BCF1000F08BFBDE8F08FD1E90B76BB
:102350004B693743496B0068394341EA8341114374
:1023600041EA0C014161BDE8F08F80B594B04FF4B3
:1023700080700C9000201390CDE90D00CDE9110084
:102380000B904FF0807100906A46049010200290EC
:102390004FF4800005900120039041F288330190B2
:1023A00040F274000F9105210691C2F2000006A9C7
:1023B000FEF71CFA002818BF6FF0020014B080BDB1
:1023C00080B500F067F800F032F844F21701C0F26F
:1023D000EF01401A18BF4FF0FF3080BD80B590B0BC
:1023E0004FF4807008904FF40050059000200A9040
:1023F000CDE90D000F904FF4406109914FF040710D
:102400000B9106210791EB210291CDE9000000F02C
:1024100041F840F2740002A9C2F200006A46FEF7D9
:10242000D7FA002818BF6FF0050010B080BD10B5B6
:1024300090B040F274044FF48070C2F2000408902F
:102440004FF40050059000200F90CDE90D00CDE92C
:1024500009004FF080710B91079003200C909F2092
:10246000029002A941F288322046FEF714FA0DF1DB
:10247000050141F288322046FEF75EFB9DF805001B
:102480009DF806109DF80720090241EA004010441B
:1024900010B010BD80B58EB04FF480700690002053
:1024A0000D90CDE90700CDE90B0009906946059034
:1024B0006620009040F27400C2F2000041F28832BF
:1024C000FEF7E9F908B1FF2003E0FFF74EFF18B16E
:1024D000FD2040B20EB080BD9920009040F2740003
:1024E0006946C2F2000041F28832FEF7D4F90028B2
:1024F000E9D1FFF73AFF002818BF6FF00200E8E7C4
:102500002DE9F04381B0814600680D468768394067
:1025100018BF0121914216D0DDF8208016461F46D3
:1025200008F101044CB1FEF782F8B8F1000F0ED0AB
:10253000C01B40450BD8D9F800008168294018BF5E
:102540000121B142EED1002001B0BDE8F0830420AA
:1025500089F84100D9F8440040F00100C9F844006E
:102560000120F1E7F0B581B044F20047C5F602075B
:10257000BA6A02F00302032A01D1012073E0054682
:1025800038680C4620F080603860FEF750F8064648
:102590003868000105D5FEF74AF8801B0228F7D9F4
:1025A0005EE0B86AEE6895E80E0020F47C30012CFD
:1025B00040EA0130A2F101016FF35F214FF47E4246
:1025C00002EB4322B86292B24FF0FE4302EB0100ED
:1025D0004FF4FE012A6901EB064101F4FE0103EB11
:1025E0000262084402F0FE410844B863F86A69696F
:1025F00020F0C00040EA0100F862F86AA96920F002
:10260000200040EA0100F862F86A4FF6F87120F005
:102610001000F862F86BEA6920EA01004FF400113B
:1026200040EAC200F863F86A08BF4FF4801140F036
:102630001000002CF86208BF4FF40021F86A08432C
:10264000F862386840F080603860FDF7F0FF0446BB
:102650003868000106D4FDF7EAFF001B0328F7D312
:10266000032000E0002001B0F0BD0000F0B581B013
:1026700044F20047C5F60207BA6A02F00302032AD1
:1026800001D1012073E0054638680C4620F08050E7
:102690003860FDF7CCFF06463868800005D5FDF7A9
:1026A000C6FF801B0228F7D95EE0B86AEE6895E89D
:1026B0000E0020F07C70012C40EA0150A2F10101D3
:1026C0006FF35F214FF47E4202EB4322B86292B275
:1026D0004FF0FE4302EB01004FF4FE012A6901EBCB
:1026E000064101F4FE0103EB0262084402F0FE41E0
:1026F00008443864F86A696920F4406040EA0100DF
:10270000F862F86AA96920F4007040EA0100F862F2
:10271000F86A4FF6F87120F48070F862786CEA6914
:1027200020EA01004FF0807140EAC2007864F86A44
:1027300008BF4FF4000140F48070002CF86208BF1D
:102740004FF48001F86A0843F862386840F080501E
:102750003860FDF76CFF04463868800006D4FDF74A
:1027600066FF001B0328F7D3032000E0002001B020
:10277000F0BD7047FDF761BFB0B59CB044F61804DA
:1027800040F22C4509A84C21C5F60204C5F6000507
:10279000FDF708FE01A82021FDF704FE0220FEF748
:1027A00001F800200090286820F0010028602868C7
:1027B00000F001000090206840F440402060206854
:1027C00000F440400090009820688004FCD54FF64B
:1027D000DC40CFF6FF70215841F002012150205813
:1027E00000F002000090009800200090206840F463
:1027F00040402060206800F440400090286840F08D
:1028000001002860286800F001000090009800BFD7
:1028100020688004FCD5012009904FF480300A9094
:1028200002200521CDE912001491C021CDE9151037
:10283000CDE9170009A8082419940025CDE91A55F7
:10284000FFF748F818B1EFF3108072B6FEE73F20AB
:10285000019003204FF48061CDE9020540200494EB
:10286000CDE90500CDE9071001A80421FEF788FE97
:1028700018B1EFF3108072B6FEE71CB0B0BD4EF693
:10288000885042F2000CCEF20000C5F2002C016824
:1028900041F470010160DCF8000000F00F00062830
:1028A00006D8DCF80000072161F30300CCF8000033
:1028B00044F200404EF67F52C5F60200CEF6F622F4
:1028C000016841F0010101600021016103681A40C3
:1028D0000260DCF80020120706D5DCF80020072390
:1028E00063F30302CCF8002040F200228161C16151
:1028F000C0F20222016282620022C0F2FF12C262B2
:1029000040F28022C0F20112026341638263C1631C
:1029100002644164026822F480220260016641F28E
:102920000000C5F600400068B1EB507F05D148F2C9
:1029300008100121C5F20010016044F2000043F2CA
:10294000D201C5F20020016070470000FEE70000E0
:10295000FDF780FEFFF710FFFFF7A1FBFFF7D3FBAA
:10296000FFF7F0FBFFF72CFDFFF738FD4EF21000EC
:102970000021CEF200004FF0104201604160816002
:10298000042040F27001C9F20000C2F200010068A8
:102990000860106880F3088808688047FEE7F1EE59
:1029A000100A4FF6FF71C0F2C03120EA010040F07A
:1029B0004070E1EE100A70470000000001020304BD
:1029C0000102030406070809E829000800000020A6
:1029D00010000000FC020008F82900081000002088
:1029E000400700001C0300080090D0030090D003B3
:0829F0000100000010000000CE
:040000050800029954
:00000001FF
